{
  "contractName": "nftmarketplace",
  "abi": [
    {
      "inputs": [],
      "stateMutability": "nonpayable",
      "type": "constructor"
    },
    {
      "anonymous": false,
      "inputs": [
        {
          "indexed": true,
          "internalType": "address",
          "name": "owner",
          "type": "address"
        },
        {
          "indexed": true,
          "internalType": "address",
          "name": "approved",
          "type": "address"
        },
        {
          "indexed": true,
          "internalType": "uint256",
          "name": "tokenId",
          "type": "uint256"
        }
      ],
      "name": "Approval",
      "type": "event"
    },
    {
      "anonymous": false,
      "inputs": [
        {
          "indexed": true,
          "internalType": "address",
          "name": "owner",
          "type": "address"
        },
        {
          "indexed": true,
          "internalType": "address",
          "name": "operator",
          "type": "address"
        },
        {
          "indexed": false,
          "internalType": "bool",
          "name": "approved",
          "type": "bool"
        }
      ],
      "name": "ApprovalForAll",
      "type": "event"
    },
    {
      "anonymous": false,
      "inputs": [
        {
          "indexed": true,
          "internalType": "address",
          "name": "from",
          "type": "address"
        },
        {
          "indexed": true,
          "internalType": "address",
          "name": "to",
          "type": "address"
        },
        {
          "indexed": true,
          "internalType": "uint256",
          "name": "tokenId",
          "type": "uint256"
        }
      ],
      "name": "Transfer",
      "type": "event"
    },
    {
      "inputs": [
        {
          "internalType": "address",
          "name": "to",
          "type": "address"
        },
        {
          "internalType": "uint256",
          "name": "tokenId",
          "type": "uint256"
        }
      ],
      "name": "approve",
      "outputs": [],
      "stateMutability": "nonpayable",
      "type": "function"
    },
    {
      "inputs": [
        {
          "internalType": "address",
          "name": "owner",
          "type": "address"
        }
      ],
      "name": "balanceOf",
      "outputs": [
        {
          "internalType": "uint256",
          "name": "",
          "type": "uint256"
        }
      ],
      "stateMutability": "view",
      "type": "function",
      "constant": true
    },
    {
      "inputs": [
        {
          "internalType": "uint256",
          "name": "tokenId",
          "type": "uint256"
        }
      ],
      "name": "getApproved",
      "outputs": [
        {
          "internalType": "address",
          "name": "",
          "type": "address"
        }
      ],
      "stateMutability": "view",
      "type": "function",
      "constant": true
    },
    {
      "inputs": [
        {
          "internalType": "address",
          "name": "owner",
          "type": "address"
        },
        {
          "internalType": "address",
          "name": "operator",
          "type": "address"
        }
      ],
      "name": "isApprovedForAll",
      "outputs": [
        {
          "internalType": "bool",
          "name": "",
          "type": "bool"
        }
      ],
      "stateMutability": "view",
      "type": "function",
      "constant": true
    },
    {
      "inputs": [
        {
          "internalType": "address",
          "name": "",
          "type": "address"
        },
        {
          "internalType": "uint256",
          "name": "",
          "type": "uint256"
        }
      ],
      "name": "listingGroup",
      "outputs": [
        {
          "internalType": "uint256",
          "name": "",
          "type": "uint256"
        }
      ],
      "stateMutability": "view",
      "type": "function",
      "constant": true
    },
    {
      "inputs": [],
      "name": "name",
      "outputs": [
        {
          "internalType": "string",
          "name": "",
          "type": "string"
        }
      ],
      "stateMutability": "view",
      "type": "function",
      "constant": true
    },
    {
      "inputs": [
        {
          "internalType": "uint256",
          "name": "tokenId",
          "type": "uint256"
        }
      ],
      "name": "ownerOf",
      "outputs": [
        {
          "internalType": "address",
          "name": "",
          "type": "address"
        }
      ],
      "stateMutability": "view",
      "type": "function",
      "constant": true
    },
    {
      "inputs": [
        {
          "internalType": "address",
          "name": "from",
          "type": "address"
        },
        {
          "internalType": "address",
          "name": "to",
          "type": "address"
        },
        {
          "internalType": "uint256",
          "name": "tokenId",
          "type": "uint256"
        }
      ],
      "name": "safeTransferFrom",
      "outputs": [],
      "stateMutability": "nonpayable",
      "type": "function"
    },
    {
      "inputs": [
        {
          "internalType": "address",
          "name": "from",
          "type": "address"
        },
        {
          "internalType": "address",
          "name": "to",
          "type": "address"
        },
        {
          "internalType": "uint256",
          "name": "tokenId",
          "type": "uint256"
        },
        {
          "internalType": "bytes",
          "name": "_data",
          "type": "bytes"
        }
      ],
      "name": "safeTransferFrom",
      "outputs": [],
      "stateMutability": "nonpayable",
      "type": "function"
    },
    {
      "inputs": [
        {
          "internalType": "address",
          "name": "operator",
          "type": "address"
        },
        {
          "internalType": "bool",
          "name": "approved",
          "type": "bool"
        }
      ],
      "name": "setApprovalForAll",
      "outputs": [],
      "stateMutability": "nonpayable",
      "type": "function"
    },
    {
      "inputs": [
        {
          "internalType": "bytes4",
          "name": "interfaceId",
          "type": "bytes4"
        }
      ],
      "name": "supportsInterface",
      "outputs": [
        {
          "internalType": "bool",
          "name": "",
          "type": "bool"
        }
      ],
      "stateMutability": "view",
      "type": "function",
      "constant": true
    },
    {
      "inputs": [],
      "name": "symbol",
      "outputs": [
        {
          "internalType": "string",
          "name": "",
          "type": "string"
        }
      ],
      "stateMutability": "view",
      "type": "function",
      "constant": true
    },
    {
      "inputs": [
        {
          "internalType": "uint256",
          "name": "tokenId",
          "type": "uint256"
        }
      ],
      "name": "tokenURI",
      "outputs": [
        {
          "internalType": "string",
          "name": "",
          "type": "string"
        }
      ],
      "stateMutability": "view",
      "type": "function",
      "constant": true
    },
    {
      "inputs": [
        {
          "internalType": "address",
          "name": "from",
          "type": "address"
        },
        {
          "internalType": "address",
          "name": "to",
          "type": "address"
        },
        {
          "internalType": "uint256",
          "name": "tokenId",
          "type": "uint256"
        }
      ],
      "name": "transferFrom",
      "outputs": [],
      "stateMutability": "nonpayable",
      "type": "function"
    },
    {
      "inputs": [
        {
          "internalType": "string",
          "name": "_tokenURI",
          "type": "string"
        }
      ],
      "name": "createnfttoken",
      "outputs": [
        {
          "internalType": "uint256",
          "name": "",
          "type": "uint256"
        }
      ],
      "stateMutability": "nonpayable",
      "type": "function"
    },
    {
      "inputs": [
        {
          "internalType": "uint256",
          "name": "_tokenid",
          "type": "uint256"
        },
        {
          "internalType": "uint256",
          "name": "_nftsaleprice",
          "type": "uint256"
        }
      ],
      "name": "nftlisting",
      "outputs": [],
      "stateMutability": "payable",
      "type": "function",
      "payable": true
    },
    {
      "inputs": [],
      "name": "nftlistingPrice",
      "outputs": [
        {
          "internalType": "uint256",
          "name": "",
          "type": "uint256"
        }
      ],
      "stateMutability": "view",
      "type": "function",
      "constant": true
    },
    {
      "inputs": [
        {
          "internalType": "uint256",
          "name": "_tokenid",
          "type": "uint256"
        }
      ],
      "name": "gettokenprice",
      "outputs": [
        {
          "internalType": "uint256",
          "name": "",
          "type": "uint256"
        }
      ],
      "stateMutability": "view",
      "type": "function",
      "constant": true
    },
    {
      "inputs": [
        {
          "internalType": "uint256",
          "name": "_tokenid",
          "type": "uint256"
        }
      ],
      "name": "purchasenft",
      "outputs": [],
      "stateMutability": "payable",
      "type": "function",
      "payable": true
    },
    {
      "inputs": [],
      "name": "mytoken",
      "outputs": [
        {
          "internalType": "uint256[]",
          "name": "",
          "type": "uint256[]"
        }
      ],
      "stateMutability": "view",
      "type": "function",
      "constant": true
    },
    {
      "inputs": [
        {
          "internalType": "uint256",
          "name": "_tokenid",
          "type": "uint256"
        },
        {
          "internalType": "uint256",
          "name": "price",
          "type": "uint256"
        }
      ],
      "name": "priceUpdate",
      "outputs": [],
      "stateMutability": "nonpayable",
      "type": "function"
    },
    {
      "inputs": [
        {
          "internalType": "uint256",
          "name": "_tokenid",
          "type": "uint256"
        },
        {
          "internalType": "uint256",
          "name": "price",
          "type": "uint256"
        }
      ],
      "name": "relisting",
      "outputs": [],
      "stateMutability": "payable",
      "type": "function",
      "payable": true
    },
    {
      "inputs": [
        {
          "internalType": "uint256",
          "name": "_tokenid",
          "type": "uint256"
        }
      ],
      "name": "nftOwner",
      "outputs": [
        {
          "internalType": "address",
          "name": "",
          "type": "address"
        }
      ],
      "stateMutability": "view",
      "type": "function",
      "constant": true
    },
    {
      "inputs": [
        {
          "internalType": "uint256",
          "name": "_tokenid",
          "type": "uint256"
        }
      ],
      "name": "nftSeller",
      "outputs": [
        {
          "internalType": "address",
          "name": "",
          "type": "address"
        }
      ],
      "stateMutability": "view",
      "type": "function",
      "constant": true
    },
    {
      "inputs": [],
      "name": "myListingNftCount",
      "outputs": [
        {
          "internalType": "uint256",
          "name": "",
          "type": "uint256"
        }
      ],
      "stateMutability": "view",
      "type": "function",
      "constant": true
    },
    {
      "inputs": [
        {
          "internalType": "uint256",
          "name": "_id",
          "type": "uint256"
        }
      ],
      "name": "myListingNft",
      "outputs": [
        {
          "internalType": "uint256",
          "name": "",
          "type": "uint256"
        },
        {
          "internalType": "address",
          "name": "",
          "type": "address"
        },
        {
          "internalType": "address",
          "name": "",
          "type": "address"
        },
        {
          "internalType": "uint256",
          "name": "",
          "type": "uint256"
        }
      ],
      "stateMutability": "view",
      "type": "function",
      "constant": true
    },
    {
      "inputs": [],
      "name": "fetchMyNFTs",
      "outputs": [
        {
          "components": [
            {
              "internalType": "uint256",
              "name": "tokenid",
              "type": "uint256"
            },
            {
              "internalType": "address",
              "name": "seller",
              "type": "address"
            },
            {
              "internalType": "address",
              "name": "owner",
              "type": "address"
            },
            {
              "internalType": "uint256",
              "name": "price",
              "type": "uint256"
            },
            {
              "internalType": "bool",
              "name": "status",
              "type": "bool"
            }
          ],
          "internalType": "struct nftmarketplace.nftitem[]",
          "name": "",
          "type": "tuple[]"
        }
      ],
      "stateMutability": "view",
      "type": "function",
      "constant": true
    },
    {
      "inputs": [],
      "name": "fetchItemsCreated",
      "outputs": [
        {
          "components": [
            {
              "internalType": "uint256",
              "name": "tokenid",
              "type": "uint256"
            },
            {
              "internalType": "address",
              "name": "seller",
              "type": "address"
            },
            {
              "internalType": "address",
              "name": "owner",
              "type": "address"
            },
            {
              "internalType": "uint256",
              "name": "price",
              "type": "uint256"
            },
            {
              "internalType": "bool",
              "name": "status",
              "type": "bool"
            }
          ],
          "internalType": "struct nftmarketplace.nftitem[]",
          "name": "",
          "type": "tuple[]"
        }
      ],
      "stateMutability": "view",
      "type": "function",
      "constant": true
    }
  ],
  "bytecode": "0x60806040526658d15e176280006008553480156200001c57600080fd5b506040518060400160405280600681526020017f4d79204e465400000000000000000000000000000000000000000000000000008152506040518060400160405280600381526020017f4e465400000000000000000000000000000000000000000000000000000000008152508160009080519060200190620000a192919062000104565b508060019080519060200190620000ba92919062000104565b50505033600960006101000a81548173ffffffffffffffffffffffffffffffffffffffff021916908373ffffffffffffffffffffffffffffffffffffffff16021790555062000219565b8280546200011290620001e3565b90600052602060002090601f01602090048101928262000136576000855562000182565b82601f106200015157805160ff191683800117855562000182565b8280016001018555821562000182579182015b828111156200018157825182559160200191906001019062000164565b5b50905062000191919062000195565b5090565b5b80821115620001b057600081600090555060010162000196565b5090565b7f4e487b7100000000000000000000000000000000000000000000000000000000600052602260045260246000fd5b60006002820490506001821680620001fc57607f821691505b60208210811415620002135762000212620001b4565b5b50919050565b614a8d80620002296000396000f3fe6080604052600436106101b75760003560e01c80635eab74fc116100ec578063ac5aa8ad1161008a578063c87b56dd11610064578063c87b56dd14610630578063e985e9c51461066d578063f064c32e146106aa578063fd731837146106d5576101b7565b8063ac5aa8ad146105ae578063b87ce52b146105ca578063b88d4fde14610607576101b7565b806376aaae85116100c657806376aaae85146105015780638e7407fe1461053e57806395d89b411461055a578063a22cb46514610585576101b7565b80635eab74fc1461045c5780636352211e1461048757806370a08231146104c4576101b7565b806314fb37821161015957806323b872dd1161013357806323b872dd1461038d578063363f7607146103b657806342842e0e146103f35780634a73222f1461041c576101b7565b806314fb3782146102fc5780631e94d0b814610339578063202e374014610362576101b7565b8063081812fc11610195578063081812fc1461024f578063095ea7b31461028c5780630e9513cf146102b557806310d55acc146102e0576101b7565b806301291531146101bc57806301ffc9a7146101e757806306fdde0314610224575b600080fd5b3480156101c857600080fd5b506101d1610712565b6040516101de91906131b9565b60405180910390f35b3480156101f357600080fd5b5061020e60048036038101906102099190613240565b61075c565b60405161021b9190613288565b60405180910390f35b34801561023057600080fd5b5061023961083e565b604051610246919061333c565b60405180910390f35b34801561025b57600080fd5b506102766004803603810190610271919061338a565b6108d0565b60405161028391906133f8565b60405180910390f35b34801561029857600080fd5b506102b360048036038101906102ae919061343f565b610955565b005b3480156102c157600080fd5b506102ca610a6d565b6040516102d791906131b9565b60405180910390f35b6102fa60048036038101906102f5919061347f565b610a77565b005b34801561030857600080fd5b50610323600480360381019061031e919061343f565b610d3f565b60405161033091906131b9565b60405180910390f35b34801561034557600080fd5b50610360600480360381019061035b919061347f565b610d70565b005b34801561036e57600080fd5b50610377610e33565b6040516103849190613603565b60405180910390f35b34801561039957600080fd5b506103b460048036038101906103af9190613625565b611137565b005b3480156103c257600080fd5b506103dd60048036038101906103d891906137ad565b611197565b6040516103ea91906131b9565b60405180910390f35b3480156103ff57600080fd5b5061041a60048036038101906104159190613625565b6111ce565b005b34801561042857600080fd5b50610443600480360381019061043e919061338a565b6111ee565b60405161045394939291906137f6565b60405180910390f35b34801561046857600080fd5b50610471611343565b60405161047e91906138ea565b60405180910390f35b34801561049357600080fd5b506104ae60048036038101906104a9919061338a565b61147b565b6040516104bb91906133f8565b60405180910390f35b3480156104d057600080fd5b506104eb60048036038101906104e6919061390c565b61152d565b6040516104f891906131b9565b60405180910390f35b34801561050d57600080fd5b506105286004803603810190610523919061338a565b6115e5565b60405161053591906131b9565b60405180910390f35b6105586004803603810190610553919061347f565b611605565b005b34801561056657600080fd5b5061056f6118f7565b60405161057c919061333c565b60405180910390f35b34801561059157600080fd5b506105ac60048036038101906105a79190613965565b611989565b005b6105c860048036038101906105c3919061338a565b61199f565b005b3480156105d657600080fd5b506105f160048036038101906105ec919061338a565b611c52565b6040516105fe91906133f8565b60405180910390f35b34801561061357600080fd5b5061062e60048036038101906106299190613a46565b611c92565b005b34801561063c57600080fd5b506106576004803603810190610652919061338a565b611cf4565b604051610664919061333c565b60405180910390f35b34801561067957600080fd5b50610694600480360381019061068f9190613ac9565b611e46565b6040516106a19190613288565b60405180910390f35b3480156106b657600080fd5b506106bf611eda565b6040516106cc9190613603565b60405180910390f35b3480156106e157600080fd5b506106fc60048036038101906106f7919061338a565b6121de565b60405161070991906133f8565b60405180910390f35b6000600b60003373ffffffffffffffffffffffffffffffffffffffff1673ffffffffffffffffffffffffffffffffffffffff16815260200190815260200160002080549050905090565b60007f80ac58cd000000000000000000000000000000000000000000000000000000007bffffffffffffffffffffffffffffffffffffffffffffffffffffffff1916827bffffffffffffffffffffffffffffffffffffffffffffffffffffffff1916148061082757507f5b5e139f000000000000000000000000000000000000000000000000000000007bffffffffffffffffffffffffffffffffffffffffffffffffffffffff1916827bffffffffffffffffffffffffffffffffffffffffffffffffffffffff1916145b8061083757506108368261221e565b5b9050919050565b60606000805461084d90613b38565b80601f016020809104026020016040519081016040528092919081815260200182805461087990613b38565b80156108c65780601f1061089b576101008083540402835291602001916108c6565b820191906000526020600020905b8154815290600101906020018083116108a957829003601f168201915b5050505050905090565b60006108db82612288565b61091a576040517f08c379a000000000000000000000000000000000000000000000000000000000815260040161091190613bdc565b60405180910390fd5b6004600083815260200190815260200160002060009054906101000a900473ffffffffffffffffffffffffffffffffffffffff169050919050565b60006109608261147b565b90508073ffffffffffffffffffffffffffffffffffffffff168373ffffffffffffffffffffffffffffffffffffffff1614156109d1576040517f08c379a00000000000000000000000000000000000000000000000000000000081526004016109c890613c6e565b60405180910390fd5b8073ffffffffffffffffffffffffffffffffffffffff166109f06122f4565b73ffffffffffffffffffffffffffffffffffffffff161480610a1f5750610a1e81610a196122f4565b611e46565b5b610a5e576040517f08c379a0000000000000000000000000000000000000000000000000000000008152600401610a5590613d00565b60405180910390fd5b610a6883836122fc565b505050565b6000600854905090565b3373ffffffffffffffffffffffffffffffffffffffff16610a978361147b565b73ffffffffffffffffffffffffffffffffffffffff1614610aed576040517f08c379a0000000000000000000000000000000000000000000000000000000008152600401610ae490613d6c565b60405180910390fd5b6008543414610b31576040517f08c379a0000000000000000000000000000000000000000000000000000000008152600401610b2890613dd8565b60405180910390fd5b600b60003373ffffffffffffffffffffffffffffffffffffffff1673ffffffffffffffffffffffffffffffffffffffff1681526020019081526020016000208290806001815401808255809150506001900390600052602060002001600090919091909150556040518060a001604052808381526020013373ffffffffffffffffffffffffffffffffffffffff1681526020013073ffffffffffffffffffffffffffffffffffffffff16815260200182815260200160011515815250600a60008481526020019081526020016000206000820151816000015560208201518160010160006101000a81548173ffffffffffffffffffffffffffffffffffffffff021916908373ffffffffffffffffffffffffffffffffffffffff16021790555060408201518160020160006101000a81548173ffffffffffffffffffffffffffffffffffffffff021916908373ffffffffffffffffffffffffffffffffffffffff1602179055506060820151816003015560808201518160040160006101000a81548160ff021916908315150217905550905050610cd03330846123b5565b600960009054906101000a900473ffffffffffffffffffffffffffffffffffffffff1673ffffffffffffffffffffffffffffffffffffffff166108fc6008549081150290604051600060405180830381858888f19350505050158015610d3a573d6000803e3d6000fd5b505050565b600b6020528160005260406000208181548110610d5b57600080fd5b90600052602060002001600091509150505481565b600a600083815260200190815260200160002060010160009054906101000a900473ffffffffffffffffffffffffffffffffffffffff1673ffffffffffffffffffffffffffffffffffffffff163373ffffffffffffffffffffffffffffffffffffffff1614610e14576040517f08c379a0000000000000000000000000000000000000000000000000000000008152600401610e0b90613e44565b60405180910390fd5b80600a6000848152602001908152602001600020600301819055505050565b60606000610e41600761261c565b905060008060005b83811015610eea573373ffffffffffffffffffffffffffffffffffffffff16600a6000600184610e799190613e93565b815260200190815260200160002060020160009054906101000a900473ffffffffffffffffffffffffffffffffffffffff1673ffffffffffffffffffffffffffffffffffffffff161415610ed757600183610ed49190613e93565b92505b8080610ee290613ee9565b915050610e49565b5060008267ffffffffffffffff811115610f0757610f06613682565b5b604051908082528060200260200182016040528015610f4057816020015b610f2d6130a0565b815260200190600190039081610f255790505b50905060005b8481101561112c573373ffffffffffffffffffffffffffffffffffffffff16600a6000600184610f769190613e93565b815260200190815260200160002060020160009054906101000a900473ffffffffffffffffffffffffffffffffffffffff1673ffffffffffffffffffffffffffffffffffffffff161415611119576000600a6000600184610fd79190613e93565b81526020019081526020016000206000015490506000600a60008381526020019081526020016000209050806040518060a0016040529081600082015481526020016001820160009054906101000a900473ffffffffffffffffffffffffffffffffffffffff1673ffffffffffffffffffffffffffffffffffffffff1673ffffffffffffffffffffffffffffffffffffffff1681526020016002820160009054906101000a900473ffffffffffffffffffffffffffffffffffffffff1673ffffffffffffffffffffffffffffffffffffffff1673ffffffffffffffffffffffffffffffffffffffff168152602001600382015481526020016004820160009054906101000a900460ff1615151515815250508486815181106110fc576110fb613f32565b5b60200260200101819052506001856111149190613e93565b945050505b808061112490613ee9565b915050610f46565b508094505050505090565b6111486111426122f4565b8261262a565b611187576040517f08c379a000000000000000000000000000000000000000000000000000000000815260040161117e90613fd3565b60405180910390fd5b6111928383836123b5565b505050565b60006111a36007612708565b60006111af600761261c565b90506111bb338261271e565b6111c581846128f8565b80915050919050565b6111e983838360405180602001604052806000815250611c92565b505050565b6000806000806000600b60003373ffffffffffffffffffffffffffffffffffffffff1673ffffffffffffffffffffffffffffffffffffffff168152602001908152602001600020868154811061124757611246613f32565b5b9060005260206000200154905060008111611297576040517f08c379a000000000000000000000000000000000000000000000000000000000815260040161128e90614019565b60405180910390fd5b600a600082815260200190815260200160002060000154600a600083815260200190815260200160002060010160009054906101000a900473ffffffffffffffffffffffffffffffffffffffff16600a600084815260200190815260200160002060020160009054906101000a900473ffffffffffffffffffffffffffffffffffffffff16600a6000858152602001908152602001600020600301549450945094509450509193509193565b60606000600b60003373ffffffffffffffffffffffffffffffffffffffff1673ffffffffffffffffffffffffffffffffffffffff16815260200190815260200160002080549050905060008167ffffffffffffffff8111156113a8576113a7613682565b5b6040519080825280602002602001820160405280156113d65781602001602082028036833780820191505090505b50905060005b8281101561147257600b60003373ffffffffffffffffffffffffffffffffffffffff1673ffffffffffffffffffffffffffffffffffffffff168152602001908152602001600020818154811061143557611434613f32565b5b906000526020600020015482828151811061145357611452613f32565b5b602002602001018181525050808061146a90613ee9565b9150506113dc565b50809250505090565b6000806002600084815260200190815260200160002060009054906101000a900473ffffffffffffffffffffffffffffffffffffffff169050600073ffffffffffffffffffffffffffffffffffffffff168173ffffffffffffffffffffffffffffffffffffffff161415611524576040517f08c379a000000000000000000000000000000000000000000000000000000000815260040161151b906140ab565b60405180910390fd5b80915050919050565b60008073ffffffffffffffffffffffffffffffffffffffff168273ffffffffffffffffffffffffffffffffffffffff16141561159e576040517f08c379a00000000000000000000000000000000000000000000000000000000081526004016115959061413d565b60405180910390fd5b600360008373ffffffffffffffffffffffffffffffffffffffff1673ffffffffffffffffffffffffffffffffffffffff168152602001908152602001600020549050919050565b6000600a6000838152602001908152602001600020600301549050919050565b3373ffffffffffffffffffffffffffffffffffffffff166116258361147b565b73ffffffffffffffffffffffffffffffffffffffff161461167b576040517f08c379a000000000000000000000000000000000000000000000000000000000815260040161167290613d6c565b60405180910390fd5b60085434146116bf576040517f08c379a00000000000000000000000000000000000000000000000000000000081526004016116b690613dd8565b60405180910390fd5b600a600083815260200190815260200160002060040160009054906101000a900460ff1615611723576040517f08c379a000000000000000000000000000000000000000000000000000000000815260040161171a906141a9565b60405180910390fd5b6001600a600084815260200190815260200160002060040160006101000a81548160ff02191690831515021790555080600a60008481526020019081526020016000206003018190555030600a600084815260200190815260200160002060020160006101000a81548173ffffffffffffffffffffffffffffffffffffffff021916908373ffffffffffffffffffffffffffffffffffffffff16021790555033600a600084815260200190815260200160002060010160006101000a81548173ffffffffffffffffffffffffffffffffffffffff021916908373ffffffffffffffffffffffffffffffffffffffff160217905550600b60003373ffffffffffffffffffffffffffffffffffffffff1673ffffffffffffffffffffffffffffffffffffffff1681526020019081526020016000208290806001815401808255809150506001900390600052602060002001600090919091909150556118883330846123b5565b600960009054906101000a900473ffffffffffffffffffffffffffffffffffffffff1673ffffffffffffffffffffffffffffffffffffffff166108fc6008549081150290604051600060405180830381858888f193505050501580156118f2573d6000803e3d6000fd5b505050565b60606001805461190690613b38565b80601f016020809104026020016040519081016040528092919081815260200182805461193290613b38565b801561197f5780601f106119545761010080835404028352916020019161197f565b820191906000526020600020905b81548152906001019060200180831161196257829003601f168201915b5050505050905090565b61199b6119946122f4565b838361296c565b5050565b6000600a60008381526020019081526020016000206003015490506000600a600084815260200190815260200160002060040160009054906101000a900460ff1690506001151581151514611a29576040517f08c379a0000000000000000000000000000000000000000000000000000000008152600401611a2090614215565b60405180910390fd5b813414611a6b576040517f08c379a0000000000000000000000000000000000000000000000000000000008152600401611a6290614281565b60405180910390fd5b6000600a600085815260200190815260200160002060010160009054906101000a900473ffffffffffffffffffffffffffffffffffffffff1690503373ffffffffffffffffffffffffffffffffffffffff168173ffffffffffffffffffffffffffffffffffffffff161415611b15576040517f08c379a0000000000000000000000000000000000000000000000000000000008152600401611b0c906142ed565b60405180910390fd5b33600a600086815260200190815260200160002060020160006101000a81548173ffffffffffffffffffffffffffffffffffffffff021916908373ffffffffffffffffffffffffffffffffffffffff1602179055506000600a600086815260200190815260200160002060010160006101000a81548173ffffffffffffffffffffffffffffffffffffffff021916908373ffffffffffffffffffffffffffffffffffffffff1602179055506000600a600086815260200190815260200160002060040160006101000a81548160ff021916908315150217905550611bfa848233612ad9565b611c053033866123b5565b8073ffffffffffffffffffffffffffffffffffffffff166108fc849081150290604051600060405180830381858888f19350505050158015611c4b573d6000803e3d6000fd5b5050505050565b6000600a600083815260200190815260200160002060010160009054906101000a900473ffffffffffffffffffffffffffffffffffffffff169050919050565b611ca3611c9d6122f4565b8361262a565b611ce2576040517f08c379a0000000000000000000000000000000000000000000000000000000008152600401611cd990613fd3565b60405180910390fd5b611cee84848484612c70565b50505050565b6060611cff82612288565b611d3e576040517f08c379a0000000000000000000000000000000000000000000000000000000008152600401611d359061437f565b60405180910390fd5b6000600660008481526020019081526020016000208054611d5e90613b38565b80601f0160208091040260200160405190810160405280929190818152602001828054611d8a90613b38565b8015611dd75780601f10611dac57610100808354040283529160200191611dd7565b820191906000526020600020905b815481529060010190602001808311611dba57829003601f168201915b505050505090506000611de8612ccc565b9050600081511415611dfe578192505050611e41565b600082511115611e33578082604051602001611e1b9291906143db565b60405160208183030381529060405292505050611e41565b611e3c84612ce3565b925050505b919050565b6000600560008473ffffffffffffffffffffffffffffffffffffffff1673ffffffffffffffffffffffffffffffffffffffff16815260200190815260200160002060008373ffffffffffffffffffffffffffffffffffffffff1673ffffffffffffffffffffffffffffffffffffffff16815260200190815260200160002060009054906101000a900460ff16905092915050565b60606000611ee8600761261c565b905060008060005b83811015611f91573373ffffffffffffffffffffffffffffffffffffffff16600a6000600184611f209190613e93565b815260200190815260200160002060010160009054906101000a900473ffffffffffffffffffffffffffffffffffffffff1673ffffffffffffffffffffffffffffffffffffffff161415611f7e57600183611f7b9190613e93565b92505b8080611f8990613ee9565b915050611ef0565b5060008267ffffffffffffffff811115611fae57611fad613682565b5b604051908082528060200260200182016040528015611fe757816020015b611fd46130a0565b815260200190600190039081611fcc5790505b50905060005b848110156121d3573373ffffffffffffffffffffffffffffffffffffffff16600a600060018461201d9190613e93565b815260200190815260200160002060010160009054906101000a900473ffffffffffffffffffffffffffffffffffffffff1673ffffffffffffffffffffffffffffffffffffffff1614156121c0576000600a600060018461207e9190613e93565b81526020019081526020016000206000015490506000600a60008381526020019081526020016000209050806040518060a0016040529081600082015481526020016001820160009054906101000a900473ffffffffffffffffffffffffffffffffffffffff1673ffffffffffffffffffffffffffffffffffffffff1673ffffffffffffffffffffffffffffffffffffffff1681526020016002820160009054906101000a900473ffffffffffffffffffffffffffffffffffffffff1673ffffffffffffffffffffffffffffffffffffffff1673ffffffffffffffffffffffffffffffffffffffff168152602001600382015481526020016004820160009054906101000a900460ff1615151515815250508486815181106121a3576121a2613f32565b5b60200260200101819052506001856121bb9190613e93565b945050505b80806121cb90613ee9565b915050611fed565b508094505050505090565b6000600a600083815260200190815260200160002060020160009054906101000a900473ffffffffffffffffffffffffffffffffffffffff169050919050565b60007f01ffc9a7000000000000000000000000000000000000000000000000000000007bffffffffffffffffffffffffffffffffffffffffffffffffffffffff1916827bffffffffffffffffffffffffffffffffffffffffffffffffffffffff1916149050919050565b60008073ffffffffffffffffffffffffffffffffffffffff166002600084815260200190815260200160002060009054906101000a900473ffffffffffffffffffffffffffffffffffffffff1673ffffffffffffffffffffffffffffffffffffffff1614159050919050565b600033905090565b816004600083815260200190815260200160002060006101000a81548173ffffffffffffffffffffffffffffffffffffffff021916908373ffffffffffffffffffffffffffffffffffffffff160217905550808273ffffffffffffffffffffffffffffffffffffffff1661236f8361147b565b73ffffffffffffffffffffffffffffffffffffffff167f8c5be1e5ebec7d5bd14f71427d1e84f3dd0314c0f7b2291e5b200ac8c7c3b92560405160405180910390a45050565b8273ffffffffffffffffffffffffffffffffffffffff166123d58261147b565b73ffffffffffffffffffffffffffffffffffffffff161461242b576040517f08c379a000000000000000000000000000000000000000000000000000000000815260040161242290614471565b60405180910390fd5b600073ffffffffffffffffffffffffffffffffffffffff168273ffffffffffffffffffffffffffffffffffffffff16141561249b576040517f08c379a000000000000000000000000000000000000000000000000000000000815260040161249290614503565b60405180910390fd5b6124a6838383612d8a565b6124b16000826122fc565b6001600360008573ffffffffffffffffffffffffffffffffffffffff1673ffffffffffffffffffffffffffffffffffffffff16815260200190815260200160002060008282546125019190614523565b925050819055506001600360008473ffffffffffffffffffffffffffffffffffffffff1673ffffffffffffffffffffffffffffffffffffffff16815260200190815260200160002060008282546125589190613e93565b92505081905550816002600083815260200190815260200160002060006101000a81548173ffffffffffffffffffffffffffffffffffffffff021916908373ffffffffffffffffffffffffffffffffffffffff160217905550808273ffffffffffffffffffffffffffffffffffffffff168473ffffffffffffffffffffffffffffffffffffffff167fddf252ad1be2c89b69c2b068fc378daa952ba7f163c4a11628f55a4df523b3ef60405160405180910390a4612617838383612d8f565b505050565b600081600001549050919050565b600061263582612288565b612674576040517f08c379a000000000000000000000000000000000000000000000000000000000815260040161266b906145c9565b60405180910390fd5b600061267f8361147b565b90508073ffffffffffffffffffffffffffffffffffffffff168473ffffffffffffffffffffffffffffffffffffffff1614806126c157506126c08185611e46565b5b806126ff57508373ffffffffffffffffffffffffffffffffffffffff166126e7846108d0565b73ffffffffffffffffffffffffffffffffffffffff16145b91505092915050565b6001816000016000828254019250508190555050565b600073ffffffffffffffffffffffffffffffffffffffff168273ffffffffffffffffffffffffffffffffffffffff16141561278e576040517f08c379a000000000000000000000000000000000000000000000000000000000815260040161278590614635565b60405180910390fd5b61279781612288565b156127d7576040517f08c379a00000000000000000000000000000000000000000000000000000000081526004016127ce906146a1565b60405180910390fd5b6127e360008383612d8a565b6001600360008473ffffffffffffffffffffffffffffffffffffffff1673ffffffffffffffffffffffffffffffffffffffff16815260200190815260200160002060008282546128339190613e93565b92505081905550816002600083815260200190815260200160002060006101000a81548173ffffffffffffffffffffffffffffffffffffffff021916908373ffffffffffffffffffffffffffffffffffffffff160217905550808273ffffffffffffffffffffffffffffffffffffffff16600073ffffffffffffffffffffffffffffffffffffffff167fddf252ad1be2c89b69c2b068fc378daa952ba7f163c4a11628f55a4df523b3ef60405160405180910390a46128f460008383612d8f565b5050565b61290182612288565b612940576040517f08c379a000000000000000000000000000000000000000000000000000000000815260040161293790614733565b60405180910390fd5b806006600084815260200190815260200160002090805190602001906129679291906130fd565b505050565b8173ffffffffffffffffffffffffffffffffffffffff168373ffffffffffffffffffffffffffffffffffffffff1614156129db576040517f08c379a00000000000000000000000000000000000000000000000000000000081526004016129d29061479f565b60405180910390fd5b80600560008573ffffffffffffffffffffffffffffffffffffffff1673ffffffffffffffffffffffffffffffffffffffff16815260200190815260200160002060008473ffffffffffffffffffffffffffffffffffffffff1673ffffffffffffffffffffffffffffffffffffffff16815260200190815260200160002060006101000a81548160ff0219169083151502179055508173ffffffffffffffffffffffffffffffffffffffff168373ffffffffffffffffffffffffffffffffffffffff167f17307eab39ab6107e8899845ad3d59bd9653f200f220920489ca2b5937696c3183604051612acc9190613288565b60405180910390a3505050565b6000600b60008473ffffffffffffffffffffffffffffffffffffffff1673ffffffffffffffffffffffffffffffffffffffff16815260200190815260200160002080549050905060005b81811015612c695784600b60008673ffffffffffffffffffffffffffffffffffffffff1673ffffffffffffffffffffffffffffffffffffffff1681526020019081526020016000208281548110612b7d57612b7c613f32565b5b90600052602060002001541415612c56576000600b60008673ffffffffffffffffffffffffffffffffffffffff1673ffffffffffffffffffffffffffffffffffffffff1681526020019081526020016000208281548110612be157612be0613f32565b5b9060005260206000200181905550600b60008473ffffffffffffffffffffffffffffffffffffffff1673ffffffffffffffffffffffffffffffffffffffff1681526020019081526020016000208590806001815401808255809150506001900390600052602060002001600090919091909150555b8080612c6190613ee9565b915050612b23565b5050505050565b612c7b8484846123b5565b612c8784848484612d94565b612cc6576040517f08c379a0000000000000000000000000000000000000000000000000000000008152600401612cbd90614831565b60405180910390fd5b50505050565b606060405180602001604052806000815250905090565b6060612cee82612288565b612d2d576040517f08c379a0000000000000000000000000000000000000000000000000000000008152600401612d24906148c3565b60405180910390fd5b6000612d37612ccc565b90506000815111612d575760405180602001604052806000815250612d82565b80612d6184612f1c565b604051602001612d729291906143db565b6040516020818303038152906040525b915050919050565b505050565b505050565b6000612db58473ffffffffffffffffffffffffffffffffffffffff1661307d565b15612f0f578373ffffffffffffffffffffffffffffffffffffffff1663150b7a02612dde6122f4565b8786866040518563ffffffff1660e01b8152600401612e009493929190614938565b6020604051808303816000875af1925050508015612e3c57506040513d601f19601f82011682018060405250810190612e399190614999565b60015b612ebf573d8060008114612e6c576040519150601f19603f3d011682016040523d82523d6000602084013e612e71565b606091505b50600081511415612eb7576040517f08c379a0000000000000000000000000000000000000000000000000000000008152600401612eae90614831565b60405180910390fd5b805181602001fd5b63150b7a0260e01b7bffffffffffffffffffffffffffffffffffffffffffffffffffffffff1916817bffffffffffffffffffffffffffffffffffffffffffffffffffffffff191614915050612f14565b600190505b949350505050565b60606000821415612f64576040518060400160405280600181526020017f30000000000000000000000000000000000000000000000000000000000000008152509050613078565b600082905060005b60008214612f96578080612f7f90613ee9565b915050600a82612f8f91906149f5565b9150612f6c565b60008167ffffffffffffffff811115612fb257612fb1613682565b5b6040519080825280601f01601f191660200182016040528015612fe45781602001600182028036833780820191505090505b5090505b6000851461307157600182612ffd9190614523565b9150600a8561300c9190614a26565b60306130189190613e93565b60f81b81838151811061302e5761302d613f32565b5b60200101907effffffffffffffffffffffffffffffffffffffffffffffffffffffffffffff1916908160001a905350600a8561306a91906149f5565b9450612fe8565b8093505050505b919050565b6000808273ffffffffffffffffffffffffffffffffffffffff163b119050919050565b6040518060a0016040528060008152602001600073ffffffffffffffffffffffffffffffffffffffff168152602001600073ffffffffffffffffffffffffffffffffffffffff168152602001600081526020016000151581525090565b82805461310990613b38565b90600052602060002090601f01602090048101928261312b5760008555613172565b82601f1061314457805160ff1916838001178555613172565b82800160010185558215613172579182015b82811115613171578251825591602001919060010190613156565b5b50905061317f9190613183565b5090565b5b8082111561319c576000816000905550600101613184565b5090565b6000819050919050565b6131b3816131a0565b82525050565b60006020820190506131ce60008301846131aa565b92915050565b6000604051905090565b600080fd5b600080fd5b60007fffffffff0000000000000000000000000000000000000000000000000000000082169050919050565b61321d816131e8565b811461322857600080fd5b50565b60008135905061323a81613214565b92915050565b600060208284031215613256576132556131de565b5b60006132648482850161322b565b91505092915050565b60008115159050919050565b6132828161326d565b82525050565b600060208201905061329d6000830184613279565b92915050565b600081519050919050565b600082825260208201905092915050565b60005b838110156132dd5780820151818401526020810190506132c2565b838111156132ec576000848401525b50505050565b6000601f19601f8301169050919050565b600061330e826132a3565b61331881856132ae565b93506133288185602086016132bf565b613331816132f2565b840191505092915050565b600060208201905081810360008301526133568184613303565b905092915050565b613367816131a0565b811461337257600080fd5b50565b6000813590506133848161335e565b92915050565b6000602082840312156133a05761339f6131de565b5b60006133ae84828501613375565b91505092915050565b600073ffffffffffffffffffffffffffffffffffffffff82169050919050565b60006133e2826133b7565b9050919050565b6133f2816133d7565b82525050565b600060208201905061340d60008301846133e9565b92915050565b61341c816133d7565b811461342757600080fd5b50565b60008135905061343981613413565b92915050565b60008060408385031215613456576134556131de565b5b60006134648582860161342a565b925050602061347585828601613375565b9150509250929050565b60008060408385031215613496576134956131de565b5b60006134a485828601613375565b92505060206134b585828601613375565b9150509250929050565b600081519050919050565b600082825260208201905092915050565b6000819050602082019050919050565b6134f4816131a0565b82525050565b613503816133d7565b82525050565b6135128161326d565b82525050565b60a08201600082015161352e60008501826134eb565b50602082015161354160208501826134fa565b50604082015161355460408501826134fa565b50606082015161356760608501826134eb565b50608082015161357a6080850182613509565b50505050565b600061358c8383613518565b60a08301905092915050565b6000602082019050919050565b60006135b0826134bf565b6135ba81856134ca565b93506135c5836134db565b8060005b838110156135f65781516135dd8882613580565b97506135e883613598565b9250506001810190506135c9565b5085935050505092915050565b6000602082019050818103600083015261361d81846135a5565b905092915050565b60008060006060848603121561363e5761363d6131de565b5b600061364c8682870161342a565b935050602061365d8682870161342a565b925050604061366e86828701613375565b9150509250925092565b600080fd5b600080fd5b7f4e487b7100000000000000000000000000000000000000000000000000000000600052604160045260246000fd5b6136ba826132f2565b810181811067ffffffffffffffff821117156136d9576136d8613682565b5b80604052505050565b60006136ec6131d4565b90506136f882826136b1565b919050565b600067ffffffffffffffff82111561371857613717613682565b5b613721826132f2565b9050602081019050919050565b82818337600083830152505050565b600061375061374b846136fd565b6136e2565b90508281526020810184848401111561376c5761376b61367d565b5b61377784828561372e565b509392505050565b600082601f83011261379457613793613678565b5b81356137a484826020860161373d565b91505092915050565b6000602082840312156137c3576137c26131de565b5b600082013567ffffffffffffffff8111156137e1576137e06131e3565b5b6137ed8482850161377f565b91505092915050565b600060808201905061380b60008301876131aa565b61381860208301866133e9565b61382560408301856133e9565b61383260608301846131aa565b95945050505050565b600081519050919050565b600082825260208201905092915050565b6000819050602082019050919050565b600061387383836134eb565b60208301905092915050565b6000602082019050919050565b60006138978261383b565b6138a18185613846565b93506138ac83613857565b8060005b838110156138dd5781516138c48882613867565b97506138cf8361387f565b9250506001810190506138b0565b5085935050505092915050565b60006020820190508181036000830152613904818461388c565b905092915050565b600060208284031215613922576139216131de565b5b60006139308482850161342a565b91505092915050565b6139428161326d565b811461394d57600080fd5b50565b60008135905061395f81613939565b92915050565b6000806040838503121561397c5761397b6131de565b5b600061398a8582860161342a565b925050602061399b85828601613950565b9150509250929050565b600067ffffffffffffffff8211156139c0576139bf613682565b5b6139c9826132f2565b9050602081019050919050565b60006139e96139e4846139a5565b6136e2565b905082815260208101848484011115613a0557613a0461367d565b5b613a1084828561372e565b509392505050565b600082601f830112613a2d57613a2c613678565b5b8135613a3d8482602086016139d6565b91505092915050565b60008060008060808587031215613a6057613a5f6131de565b5b6000613a6e8782880161342a565b9450506020613a7f8782880161342a565b9350506040613a9087828801613375565b925050606085013567ffffffffffffffff811115613ab157613ab06131e3565b5b613abd87828801613a18565b91505092959194509250565b60008060408385031215613ae057613adf6131de565b5b6000613aee8582860161342a565b9250506020613aff8582860161342a565b9150509250929050565b7f4e487b7100000000000000000000000000000000000000000000000000000000600052602260045260246000fd5b60006002820490506001821680613b5057607f821691505b60208210811415613b6457613b63613b09565b5b50919050565b7f4552433732313a20617070726f76656420717565727920666f72206e6f6e657860008201527f697374656e7420746f6b656e0000000000000000000000000000000000000000602082015250565b6000613bc6602c836132ae565b9150613bd182613b6a565b604082019050919050565b60006020820190508181036000830152613bf581613bb9565b9050919050565b7f4552433732313a20617070726f76616c20746f2063757272656e74206f776e6560008201527f7200000000000000000000000000000000000000000000000000000000000000602082015250565b6000613c586021836132ae565b9150613c6382613bfc565b604082019050919050565b60006020820190508181036000830152613c8781613c4b565b9050919050565b7f4552433732313a20617070726f76652063616c6c6572206973206e6f74206f7760008201527f6e6572206e6f7220617070726f76656420666f7220616c6c0000000000000000602082015250565b6000613cea6038836132ae565b9150613cf582613c8e565b604082019050919050565b60006020820190508181036000830152613d1981613cdd565b9050919050565b7f596f7520617265206e6f74206f776e6572206f662074686973206e6674000000600082015250565b6000613d56601d836132ae565b9150613d6182613d20565b602082019050919050565b60006020820190508181036000830152613d8581613d49565b9050919050565b7f50617920636f7272656374206c697374696e6720707269636500000000000000600082015250565b6000613dc26019836132ae565b9150613dcd82613d8c565b602082019050919050565b60006020820190508181036000830152613df181613db5565b9050919050565b7f596f7520617265206e6f742073656c6c6572206f662074686973206e66740000600082015250565b6000613e2e601e836132ae565b9150613e3982613df8565b602082019050919050565b60006020820190508181036000830152613e5d81613e21565b9050919050565b7f4e487b7100000000000000000000000000000000000000000000000000000000600052601160045260246000fd5b6000613e9e826131a0565b9150613ea9836131a0565b9250827fffffffffffffffffffffffffffffffffffffffffffffffffffffffffffffffff03821115613ede57613edd613e64565b5b828201905092915050565b6000613ef4826131a0565b91507fffffffffffffffffffffffffffffffffffffffffffffffffffffffffffffffff821415613f2757613f26613e64565b5b600182019050919050565b7f4e487b7100000000000000000000000000000000000000000000000000000000600052603260045260246000fd5b7f4552433732313a207472616e736665722063616c6c6572206973206e6f74206f60008201527f776e6572206e6f7220617070726f766564000000000000000000000000000000602082015250565b6000613fbd6031836132ae565b9150613fc882613f61565b604082019050919050565b60006020820190508181036000830152613fec81613fb0565b9050919050565b50565b60006140036000836132ae565b915061400e82613ff3565b600082019050919050565b6000602082019050818103600083015261403281613ff6565b9050919050565b7f4552433732313a206f776e657220717565727920666f72206e6f6e657869737460008201527f656e7420746f6b656e0000000000000000000000000000000000000000000000602082015250565b60006140956029836132ae565b91506140a082614039565b604082019050919050565b600060208201905081810360008301526140c481614088565b9050919050565b7f4552433732313a2062616c616e636520717565727920666f7220746865207a6560008201527f726f206164647265737300000000000000000000000000000000000000000000602082015250565b6000614127602a836132ae565b9150614132826140cb565b604082019050919050565b600060208201905081810360008301526141568161411a565b9050919050565b7f7374617475732073686f756c642062652066616c736500000000000000000000600082015250565b60006141936016836132ae565b915061419e8261415d565b602082019050919050565b600060208201905081810360008301526141c281614186565b9050919050565b7f54686973206e6674206e6f7420666f722073616c65207269676874206e6f7700600082015250565b60006141ff601f836132ae565b915061420a826141c9565b602082019050919050565b6000602082019050818103600083015261422e816141f2565b9050919050565b7f6e6674207072696365206e6f742073616d650000000000000000000000000000600082015250565b600061426b6012836132ae565b915061427682614235565b602082019050919050565b6000602082019050818103600083015261429a8161425e565b9050919050565b7f73656c6c65722063616e206e6f7420627579207468656972206f776e206e6674600082015250565b60006142d76020836132ae565b91506142e2826142a1565b602082019050919050565b60006020820190508181036000830152614306816142ca565b9050919050565b7f45524337323155524953746f726167653a2055524920717565727920666f722060008201527f6e6f6e6578697374656e7420746f6b656e000000000000000000000000000000602082015250565b60006143696031836132ae565b91506143748261430d565b604082019050919050565b600060208201905081810360008301526143988161435c565b9050919050565b600081905092915050565b60006143b5826132a3565b6143bf818561439f565b93506143cf8185602086016132bf565b80840191505092915050565b60006143e782856143aa565b91506143f382846143aa565b91508190509392505050565b7f4552433732313a207472616e736665722066726f6d20696e636f72726563742060008201527f6f776e6572000000000000000000000000000000000000000000000000000000602082015250565b600061445b6025836132ae565b9150614466826143ff565b604082019050919050565b6000602082019050818103600083015261448a8161444e565b9050919050565b7f4552433732313a207472616e7366657220746f20746865207a65726f2061646460008201527f7265737300000000000000000000000000000000000000000000000000000000602082015250565b60006144ed6024836132ae565b91506144f882614491565b604082019050919050565b6000602082019050818103600083015261451c816144e0565b9050919050565b600061452e826131a0565b9150614539836131a0565b92508282101561454c5761454b613e64565b5b828203905092915050565b7f4552433732313a206f70657261746f7220717565727920666f72206e6f6e657860008201527f697374656e7420746f6b656e0000000000000000000000000000000000000000602082015250565b60006145b3602c836132ae565b91506145be82614557565b604082019050919050565b600060208201905081810360008301526145e2816145a6565b9050919050565b7f4552433732313a206d696e7420746f20746865207a65726f2061646472657373600082015250565b600061461f6020836132ae565b915061462a826145e9565b602082019050919050565b6000602082019050818103600083015261464e81614612565b9050919050565b7f4552433732313a20746f6b656e20616c7265616479206d696e74656400000000600082015250565b600061468b601c836132ae565b915061469682614655565b602082019050919050565b600060208201905081810360008301526146ba8161467e565b9050919050565b7f45524337323155524953746f726167653a2055524920736574206f66206e6f6e60008201527f6578697374656e7420746f6b656e000000000000000000000000000000000000602082015250565b600061471d602e836132ae565b9150614728826146c1565b604082019050919050565b6000602082019050818103600083015261474c81614710565b9050919050565b7f4552433732313a20617070726f766520746f2063616c6c657200000000000000600082015250565b60006147896019836132ae565b915061479482614753565b602082019050919050565b600060208201905081810360008301526147b88161477c565b9050919050565b7f4552433732313a207472616e7366657220746f206e6f6e20455243373231526560008201527f63656976657220696d706c656d656e7465720000000000000000000000000000602082015250565b600061481b6032836132ae565b9150614826826147bf565b604082019050919050565b6000602082019050818103600083015261484a8161480e565b9050919050565b7f4552433732314d657461646174613a2055524920717565727920666f72206e6f60008201527f6e6578697374656e7420746f6b656e0000000000000000000000000000000000602082015250565b60006148ad602f836132ae565b91506148b882614851565b604082019050919050565b600060208201905081810360008301526148dc816148a0565b9050919050565b600081519050919050565b600082825260208201905092915050565b600061490a826148e3565b61491481856148ee565b93506149248185602086016132bf565b61492d816132f2565b840191505092915050565b600060808201905061494d60008301876133e9565b61495a60208301866133e9565b61496760408301856131aa565b818103606083015261497981846148ff565b905095945050505050565b60008151905061499381613214565b92915050565b6000602082840312156149af576149ae6131de565b5b60006149bd84828501614984565b91505092915050565b7f4e487b7100000000000000000000000000000000000000000000000000000000600052601260045260246000fd5b6000614a00826131a0565b9150614a0b836131a0565b925082614a1b57614a1a6149c6565b5b828204905092915050565b6000614a31826131a0565b9150614a3c836131a0565b925082614a4c57614a4b6149c6565b5b82820690509291505056fea26469706673582212203f68fde21f87cc9b63f6c5e6a78ce19bc57e94987ad57e3ba29e3862623c28ec64736f6c634300080b0033",
  "immutableReferences": {},
  "source": "// SPDX-License-Identifier: MIT\r\npragma solidity ^0.8.4;\r\n\r\nimport \"@openzeppelin/contracts/utils/Counters.sol\";\r\nimport \"@openzeppelin/contracts/token/ERC721/ERC721.sol\";\r\nimport \"@openzeppelin/contracts/token/ERC721/extensions/ERC721URIStorage.sol\";\r\n\r\n\r\ncontract nftmarketplace is ERC721URIStorage{\r\nusing Counters for Counters.Counter;\r\nCounters.Counter private _tokenIds;\r\nuint256 listingPrice = 0.025 ether; // 25000000000000000 WEI\r\naddress payable owner;\r\n\r\nstruct nftitem{\r\n    uint tokenid;\r\n    address seller;\r\n    address owner;\r\n    uint price;\r\n    bool status;\r\n}\r\n\r\n\r\nmapping(uint => nftitem) private nftitemlist; // listing mapping\r\nmapping(address => uint[]) public listingGroup; //0x00=[1,2,4]   // avoid for loop in all data if supposed to get one individual data\r\n//mapping(address => uint[]) public notListingGroup; //0x00=[1,2,4] // avoid for loop in all data if supposed to get one individual data\r\nconstructor() ERC721(\"My NFT\",\"NFT\"){\r\n    owner=payable(msg.sender) ;\r\n}\r\n\r\n//mint nft anyone free of cost\r\nfunction createnfttoken(string memory _tokenURI)  public returns (uint){\r\n    _tokenIds.increment();\r\n    uint newtokenid=_tokenIds.current();\r\n    //my not listing nft\r\n    //notListingGroup[msg.sender].push(newtokenid); //0x00=[1,2,4] avoid for loop all values\r\n    _mint(msg.sender,newtokenid);\r\n    _setTokenURI(newtokenid,_tokenURI);\r\n    return newtokenid;\r\n}\r\n\r\n// nft owner listing in the marketplace paying with listing fees\r\n//  25000000000000000 WEI listing fees\r\n// nft price if suppose 2000000000000000000\r\nfunction nftlisting(uint _tokenid,uint _nftsaleprice) payable public{\r\n\r\n    require(ERC721.ownerOf(_tokenid) == msg.sender, \"You are not owner of this nft\");\r\n    require(msg.value==listingPrice,\"Pay correct listing price\");\r\n    //require (nftitemlist[_tokenid].status != true,\"already this nft in sale, you can not list again.please update price function\");\r\n    listingGroup[msg.sender].push(_tokenid); //0x00=[1,2,4] avoid for loop all values\r\n    nftitemlist[_tokenid]=nftitem(_tokenid,msg.sender,address(this),_nftsaleprice,true);\r\n    _transfer(msg.sender,address(this),_tokenid);\r\n    payable(owner).transfer(listingPrice);\r\n}\r\n\r\n// get listing fees for seller\r\nfunction nftlistingPrice() public view returns (uint256) {\r\n      return listingPrice;\r\n}\r\n\r\n// get nft price to know for buyer\r\nfunction gettokenprice(uint _tokenid) public view returns (uint){\r\n     return nftitemlist[_tokenid].price;\r\n}\r\n\r\n// purchase nft from market place ,the seller will get money\r\nfunction purchasenft(uint _tokenid) public payable{\r\n    uint nftprice=nftitemlist[_tokenid].price;\r\n    bool issale=nftitemlist[_tokenid].status;\r\n\r\n    require(issale==true,\"This nft not for sale right now\");\r\n    require(msg.value==nftprice,\"nft price not same\");\r\n    \r\n    address seller = nftitemlist[_tokenid].seller;\r\n    require(seller !=msg.sender,\"seller can not buy their own nft\");\r\n    nftitemlist[_tokenid].owner=msg.sender;\r\n    nftitemlist[_tokenid].seller=address(0);\r\n    nftitemlist[_tokenid].status=false;\r\n\r\n    // array update\r\n    listingGroupupdate(_tokenid,seller,msg.sender);\r\n    _transfer(address(this),msg.sender,_tokenid);\r\n    payable(seller).transfer(nftprice);\r\n}\r\n// this is function for avoid for loop all nft only aray data only loop for individual person nft\r\nfunction listingGroupupdate(uint _tokenid,address preseller,address buyer) private{\r\n    uint length = listingGroup[preseller].length;\r\n        //uint[] memory newarray=new uint[](length);\r\n        for(uint i=0;i < length;i++)\r\n        {\r\n            //address  tempaddress=buyer[i];\r\n            if(listingGroup[preseller][i]==_tokenid) \r\n            {\r\n                listingGroup[preseller][i]=0;\r\n                listingGroup[buyer].push(_tokenid);\r\n            }\r\n        }\r\n}\r\n// only for our knowledge \r\nfunction mytoken() public view returns(uint[] memory)\r\n{\r\n        uint length = listingGroup[msg.sender].length;\r\n        uint[] memory newarray=new uint[](length);\r\n        for(uint i=0;i < length;i++)\r\n        {\r\n            //address  tempaddress=buyer[i];\r\n            newarray[i]=listingGroup[msg.sender][i];\r\n        }\r\n        return newarray;  \r\n\r\n}\r\n\r\n// can update price even though listing\r\nfunction priceUpdate(uint _tokenid,uint price) public{\r\n    require(msg.sender==nftitemlist[_tokenid].seller,\"You are not seller of this nft\");\r\n    nftitemlist[_tokenid].price=price;\r\n}\r\n\r\nfunction relisting(uint _tokenid,uint price) public payable{\r\n\r\n    require(ERC721.ownerOf(_tokenid) == msg.sender, \"You are not owner of this nft\");\r\n    require(msg.value==listingPrice,\"Pay correct listing price\");\r\n    require(!nftitemlist[_tokenid].status,\"status should be false\");\r\n     nftitemlist[_tokenid].status=true;\r\n     nftitemlist[_tokenid].price=price;\r\n     nftitemlist[_tokenid].owner=address(this);\r\n     nftitemlist[_tokenid].seller=msg.sender;\r\n     listingGroup[msg.sender].push(_tokenid);\r\n    _transfer(msg.sender,address(this),_tokenid);\r\n     payable(owner).transfer(listingPrice);\r\n\r\n}\r\n\r\nfunction nftOwner(uint _tokenid) public view returns(address){\r\n    return nftitemlist[_tokenid].owner;\r\n}\r\n\r\nfunction nftSeller(uint _tokenid) public view returns(address){\r\n    return nftitemlist[_tokenid].seller;\r\n}\r\n\r\n//get my listing nft count\r\nfunction myListingNftCount() public view returns(uint){\r\n    return listingGroup[msg.sender].length;\r\n}\r\n\r\n//get  my listing nft one by one from web3 ui\r\nfunction myListingNft(uint _id) public view returns(uint,address,address,uint){\r\n    //require(ERC721.ownerOf(_tokenid) == msg.sender, \"You are not owner of this nft\");\r\n    uint _tokenid=listingGroup[msg.sender][_id];\r\n    require (_tokenid > 0,\"\");\r\n    return (nftitemlist[_tokenid].tokenid,\r\n    nftitemlist[_tokenid].seller,\r\n    nftitemlist[_tokenid].owner,\r\n    nftitemlist[_tokenid].price);\r\n}\r\n\r\n\r\n\r\n/// @notice fetch list of NFTS owned/bought by this user\r\n        function fetchMyNFTs() public view returns (nftitem[] memory){\r\n            //get total number of items ever created\r\n            uint totalItemCount = _tokenIds.current();\r\n\r\n            uint itemCount = 0;\r\n            uint currentIndex = 0;\r\n\r\n\r\n            for(uint i = 0; i < totalItemCount; i++){\r\n                //get only the items that this user has bought/is the owner\r\n                if(nftitemlist[i+1].owner == msg.sender){\r\n                    itemCount += 1; //total length\r\n                }\r\n            }\r\n\r\n            nftitem[] memory items = new nftitem[](itemCount);\r\n            for(uint i = 0; i < totalItemCount; i++){\r\n               if(nftitemlist[i+1].owner == msg.sender){\r\n                   uint currentId = nftitemlist[i+1].tokenid;\r\n                   nftitem storage currentItem = nftitemlist[currentId];\r\n                   items[currentIndex] = currentItem;\r\n                   currentIndex += 1;\r\n               }\r\n            }\r\n            return items;\r\n\r\n        }\r\n\r\n\r\n         /// @notice fetch list of NFTS owned/bought by this user\r\n        function fetchItemsCreated() public view returns (nftitem[] memory){\r\n            //get total number of items ever created\r\n            uint totalItemCount = _tokenIds.current();\r\n\r\n            uint itemCount = 0;\r\n            uint currentIndex = 0;\r\n\r\n\r\n            for(uint i = 0; i < totalItemCount; i++){\r\n                //get only the items that this user has bought/is the owner\r\n                if(nftitemlist[i+1].seller == msg.sender){\r\n                    itemCount += 1; //total length\r\n                }\r\n            }\r\n\r\n            nftitem[] memory items = new nftitem[](itemCount);\r\n            for(uint i = 0; i < totalItemCount; i++){\r\n               if(nftitemlist[i+1].seller == msg.sender){\r\n                   uint currentId = nftitemlist[i+1].tokenid;\r\n                   nftitem storage currentItem = nftitemlist[currentId];\r\n                   items[currentIndex] = currentItem;\r\n                   currentIndex += 1;\r\n               }\r\n            }\r\n            return items;\r\n\r\n        }\r\n\r\n}\r\n",
  "sourcePath": "C:\\wamp64\\www\\blockchain\\nftdapp\\nftdappcontract\\contracts\\nftmarketplace.sol",
  "compiler": {
    "name": "solc",
    "version": "0.8.11+commit.d7f03943.Emscripten.clang"
  },
  "schemaVersion": "3.4.4",
  "updatedAt": "2022-05-14T14:45:13.290Z",
  "networkType": "ethereum",
  "devdoc": {
    "kind": "dev",
    "methods": {
      "approve(address,uint256)": {
        "details": "See {IERC721-approve}."
      },
      "balanceOf(address)": {
        "details": "See {IERC721-balanceOf}."
      },
      "getApproved(uint256)": {
        "details": "See {IERC721-getApproved}."
      },
      "isApprovedForAll(address,address)": {
        "details": "See {IERC721-isApprovedForAll}."
      },
      "name()": {
        "details": "See {IERC721Metadata-name}."
      },
      "ownerOf(uint256)": {
        "details": "See {IERC721-ownerOf}."
      },
      "safeTransferFrom(address,address,uint256)": {
        "details": "See {IERC721-safeTransferFrom}."
      },
      "safeTransferFrom(address,address,uint256,bytes)": {
        "details": "See {IERC721-safeTransferFrom}."
      },
      "setApprovalForAll(address,bool)": {
        "details": "See {IERC721-setApprovalForAll}."
      },
      "supportsInterface(bytes4)": {
        "details": "See {IERC165-supportsInterface}."
      },
      "symbol()": {
        "details": "See {IERC721Metadata-symbol}."
      },
      "tokenURI(uint256)": {
        "details": "See {IERC721Metadata-tokenURI}."
      },
      "transferFrom(address,address,uint256)": {
        "details": "See {IERC721-transferFrom}."
      }
    },
    "version": 1
  },
  "userdoc": {
    "kind": "user",
    "methods": {
      "fetchItemsCreated()": {
        "notice": "fetch list of NFTS owned/bought by this user"
      },
      "fetchMyNFTs()": {
        "notice": "fetch list of NFTS owned/bought by this user"
      }
    },
    "version": 1
  }
}